{
  "contractName": "BlockSecureDeployer",
  "abi": [
    {
      "inputs": [],
      "payable": false,
      "stateMutability": "nonpayable",
      "type": "constructor"
    },
    {
      "constant": true,
      "inputs": [],
      "name": "insuranceCounter",
      "outputs": [
        {
          "internalType": "uint256",
          "name": "",
          "type": "uint256"
        }
      ],
      "payable": false,
      "stateMutability": "view",
      "type": "function"
    },
    {
      "constant": true,
      "inputs": [
        {
          "internalType": "uint256",
          "name": "",
          "type": "uint256"
        }
      ],
      "name": "insurances",
      "outputs": [
        {
          "internalType": "contract SecureInsuranceContract",
          "name": "",
          "type": "address"
        }
      ],
      "payable": false,
      "stateMutability": "view",
      "type": "function"
    },
    {
      "constant": false,
      "inputs": [
        {
          "internalType": "int256",
          "name": "aadhaarCardNumber",
          "type": "int256"
        },
        {
          "internalType": "string",
          "name": "sex",
          "type": "string"
        },
        {
          "internalType": "address",
          "name": "bankName",
          "type": "address"
        },
        {
          "internalType": "int256",
          "name": "accountNumber",
          "type": "int256"
        },
        {
          "internalType": "address",
          "name": "insurerName",
          "type": "address"
        },
        {
          "internalType": "string",
          "name": "policyName",
          "type": "string"
        },
        {
          "internalType": "address",
          "name": "hospitalName",
          "type": "address"
        },
        {
          "internalType": "string",
          "name": "pan",
          "type": "string"
        },
        {
          "internalType": "int256",
          "name": "sumAssured",
          "type": "int256"
        },
        {
          "internalType": "int256",
          "name": "policyTerm",
          "type": "int256"
        },
        {
          "internalType": "int256",
          "name": "paymentTerm",
          "type": "int256"
        },
        {
          "internalType": "bool",
          "name": "premiumPayment",
          "type": "bool"
        }
      ],
      "name": "ApplyForInsurance",
      "outputs": [
        {
          "internalType": "uint256",
          "name": "",
          "type": "uint256"
        }
      ],
      "payable": false,
      "stateMutability": "nonpayable",
      "type": "function"
    },
    {
      "constant": true,
      "inputs": [
        {
          "internalType": "uint256",
          "name": "idx",
          "type": "uint256"
        }
      ],
      "name": "FetchInsuranceByIndex",
      "outputs": [
        {
          "internalType": "int256",
          "name": "aadhaarCardNumber",
          "type": "int256"
        },
        {
          "internalType": "int256",
          "name": "accountNumber",
          "type": "int256"
        },
        {
          "internalType": "string",
          "name": "pan",
          "type": "string"
        },
        {
          "internalType": "uint256",
          "name": "state",
          "type": "uint256"
        },
        {
          "internalType": "address",
          "name": "bankName",
          "type": "address"
        },
        {
          "internalType": "address",
          "name": "insurerName",
          "type": "address"
        },
        {
          "internalType": "address",
          "name": "hospitalName",
          "type": "address"
        },
        {
          "internalType": "string",
          "name": "policyName",
          "type": "string"
        },
        {
          "internalType": "int256",
          "name": "sumAssured",
          "type": "int256"
        },
        {
          "internalType": "int256",
          "name": "policyTerm",
          "type": "int256"
        },
        {
          "internalType": "int256",
          "name": "paymentTerm",
          "type": "int256"
        },
        {
          "internalType": "bool",
          "name": "premiumPayment",
          "type": "bool"
        }
      ],
      "payable": false,
      "stateMutability": "view",
      "type": "function"
    },
    {
      "constant": false,
      "inputs": [
        {
          "internalType": "uint256",
          "name": "idx",
          "type": "uint256"
        }
      ],
      "name": "ConfirmDetails",
      "outputs": [
        {
          "internalType": "uint256",
          "name": "",
          "type": "uint256"
        }
      ],
      "payable": false,
      "stateMutability": "nonpayable",
      "type": "function"
    },
    {
      "constant": false,
      "inputs": [
        {
          "internalType": "uint256",
          "name": "idx",
          "type": "uint256"
        }
      ],
      "name": "SendToBankUnderwriter",
      "outputs": [
        {
          "internalType": "uint256",
          "name": "",
          "type": "uint256"
        }
      ],
      "payable": false,
      "stateMutability": "nonpayable",
      "type": "function"
    },
    {
      "constant": false,
      "inputs": [
        {
          "internalType": "uint256",
          "name": "idx",
          "type": "uint256"
        },
        {
          "internalType": "bool",
          "name": "customerVerification",
          "type": "bool"
        },
        {
          "internalType": "bool",
          "name": "active",
          "type": "bool"
        },
        {
          "internalType": "int256",
          "name": "financialHealthPoints",
          "type": "int256"
        },
        {
          "internalType": "bool",
          "name": "bankUnderwritingResult",
          "type": "bool"
        }
      ],
      "name": "UpdateFinancialHealth",
      "outputs": [
        {
          "internalType": "uint256",
          "name": "",
          "type": "uint256"
        }
      ],
      "payable": false,
      "stateMutability": "nonpayable",
      "type": "function"
    },
    {
      "constant": false,
      "inputs": [
        {
          "internalType": "uint256",
          "name": "idx",
          "type": "uint256"
        }
      ],
      "name": "SendToMedicalUnderwriter",
      "outputs": [
        {
          "internalType": "uint256",
          "name": "",
          "type": "uint256"
        }
      ],
      "payable": false,
      "stateMutability": "nonpayable",
      "type": "function"
    },
    {
      "constant": false,
      "inputs": [
        {
          "internalType": "uint256",
          "name": "idx",
          "type": "uint256"
        },
        {
          "internalType": "bool",
          "name": "activeStatus",
          "type": "bool"
        },
        {
          "internalType": "int256",
          "name": "healthScore",
          "type": "int256"
        },
        {
          "internalType": "bool",
          "name": "physicalVerification",
          "type": "bool"
        },
        {
          "internalType": "bool",
          "name": "medicalUnderwriting",
          "type": "bool"
        }
      ],
      "name": "UpdateMedicalHealth",
      "outputs": [
        {
          "internalType": "uint256",
          "name": "",
          "type": "uint256"
        }
      ],
      "payable": false,
      "stateMutability": "nonpayable",
      "type": "function"
    },
    {
      "constant": false,
      "inputs": [
        {
          "internalType": "uint256",
          "name": "idx",
          "type": "uint256"
        },
        {
          "internalType": "bool",
          "name": "premiumReceived",
          "type": "bool"
        },
        {
          "internalType": "int256",
          "name": "policyNumber",
          "type": "int256"
        },
        {
          "internalType": "int256",
          "name": "issuanceDate",
          "type": "int256"
        },
        {
          "internalType": "int256",
          "name": "maturityDate",
          "type": "int256"
        },
        {
          "internalType": "int256",
          "name": "premiumFinal",
          "type": "int256"
        },
        {
          "internalType": "int256",
          "name": "sumAssuredFinal",
          "type": "int256"
        },
        {
          "internalType": "bool",
          "name": "policyIssued",
          "type": "bool"
        }
      ],
      "name": "RecalculatePolicy",
      "outputs": [
        {
          "internalType": "uint256",
          "name": "",
          "type": "uint256"
        }
      ],
      "payable": false,
      "stateMutability": "nonpayable",
      "type": "function"
    },
    {
      "constant": false,
      "inputs": [
        {
          "internalType": "uint256",
          "name": "idx",
          "type": "uint256"
        }
      ],
      "name": "ConfirmPolicy",
      "outputs": [
        {
          "internalType": "uint256",
          "name": "",
          "type": "uint256"
        }
      ],
      "payable": false,
      "stateMutability": "nonpayable",
      "type": "function"
    },
    {
      "constant": false,
      "inputs": [
        {
          "internalType": "uint256",
          "name": "idx",
          "type": "uint256"
        }
      ],
      "name": "Reject",
      "outputs": [
        {
          "internalType": "uint256",
          "name": "",
          "type": "uint256"
        }
      ],
      "payable": false,
      "stateMutability": "nonpayable",
      "type": "function"
    },
    {
      "constant": false,
      "inputs": [
        {
          "internalType": "uint256",
          "name": "idx",
          "type": "uint256"
        },
        {
          "internalType": "string",
          "name": "claimReason",
          "type": "string"
        },
        {
          "internalType": "address",
          "name": "claimResponder",
          "type": "address"
        }
      ],
      "name": "InvokeClaim",
      "outputs": [
        {
          "internalType": "uint256",
          "name": "",
          "type": "uint256"
        }
      ],
      "payable": false,
      "stateMutability": "nonpayable",
      "type": "function"
    },
    {
      "constant": false,
      "inputs": [
        {
          "internalType": "uint256",
          "name": "idx",
          "type": "uint256"
        },
        {
          "internalType": "bool",
          "name": "claimReasonVerification",
          "type": "bool"
        },
        {
          "internalType": "string",
          "name": "claimReasonRemark",
          "type": "string"
        }
      ],
      "name": "SubmitClaimDetails",
      "outputs": [
        {
          "internalType": "uint256",
          "name": "",
          "type": "uint256"
        }
      ],
      "payable": false,
      "stateMutability": "nonpayable",
      "type": "function"
    },
    {
      "constant": false,
      "inputs": [
        {
          "internalType": "uint256",
          "name": "idx",
          "type": "uint256"
        }
      ],
      "name": "ClaimRequestAccepted",
      "outputs": [
        {
          "internalType": "uint256",
          "name": "",
          "type": "uint256"
        }
      ],
      "payable": false,
      "stateMutability": "nonpayable",
      "type": "function"
    },
    {
      "constant": false,
      "inputs": [
        {
          "internalType": "uint256",
          "name": "idx",
          "type": "uint256"
        }
      ],
      "name": "ClaimRequestRejected",
      "outputs": [
        {
          "internalType": "uint256",
          "name": "",
          "type": "uint256"
        }
      ],
      "payable": false,
      "stateMutability": "nonpayable",
      "type": "function"
    }
  ],
  "bytecode": "0x608060405234801561001057600080fd5b506000600181905550614594806100286000396000f3fe60806040523480156200001157600080fd5b5060043610620001185760003560e01c806390986f4711620000a5578063d7139279116200006f578063d7139279146200089c578063e48787bf1462000a86578063e5ae5a861462000af9578063f98068cd1462000b3e5762000118565b806390986f471462000628578063b1d067d3146200066d578063cf1d7792146200076c578063d2b4669514620007b15762000118565b806334eef84f11620000e757806334eef84f146200025f57806355466709146200027f578063579f6328146200030f57806359fb49f914620005b75762000118565b806308efc423146200011d5780631698de481462000162578063230a38fb14620001d5578063276e809a146200021a575b600080fd5b6200014c600480360360208110156200013557600080fd5b810190808035906020019092919050505062000b83565b6040518082815260200191505060405180910390f35b620001bf600480360360a08110156200017a57600080fd5b81019080803590602001909291908035151590602001909291908035151590602001909291908035906020019092919080351515906020019092919050505062000cbb565b6040518082815260200191505060405180910390f35b6200020460048036036020811015620001ed57600080fd5b810190808035906020019092919050505062000e26565b6040518082815260200191505060405180910390f35b62000249600480360360208110156200023257600080fd5b810190808035906020019092919050505062000f5e565b6040518082815260200191505060405180910390f35b6200026962001096565b6040518082815260200191505060405180910390f35b620002f960048036036101008110156200029857600080fd5b810190808035906020019092919080351515906020019092919080359060200190929190803590602001909291908035906020019092919080359060200190929190803590602001909291908035151590602001909291905050506200109c565b6040518082815260200191505060405180910390f35b620005a160048036036101808110156200032857600080fd5b8101908080359060200190929190803590602001906401000000008111156200035057600080fd5b8201836020820111156200036357600080fd5b803590602001918460018302840111640100000000831117156200038657600080fd5b91908080601f016020809104026020016040519081016040528093929190818152602001838380828437600081840152601f19601f820116905080830192505050505050509192919290803573ffffffffffffffffffffffffffffffffffffffff16906020019092919080359060200190929190803573ffffffffffffffffffffffffffffffffffffffff169060200190929190803590602001906401000000008111156200043457600080fd5b8201836020820111156200044757600080fd5b803590602001918460018302840111640100000000831117156200046a57600080fd5b91908080601f016020809104026020016040519081016040528093929190818152602001838380828437600081840152601f19601f820116905080830192505050505050509192919290803573ffffffffffffffffffffffffffffffffffffffff16906020019092919080359060200190640100000000811115620004ee57600080fd5b8201836020820111156200050157600080fd5b803590602001918460018302840111640100000000831117156200052457600080fd5b91908080601f016020809104026020016040519081016040528093929190818152602001838380828437600081840152601f19601f8201169050808301925050505050505091929192908035906020019092919080359060200190929190803590602001909291908035151590602001909291905050506200121e565b6040518082815260200191505060405180910390f35b620005e660048036036020811015620005cf57600080fd5b810190808035906020019092919050505062001502565b604051808273ffffffffffffffffffffffffffffffffffffffff1673ffffffffffffffffffffffffffffffffffffffff16815260200191505060405180910390f35b62000657600480360360208110156200064057600080fd5b81019080803590602001909291905050506200153f565b6040518082815260200191505060405180910390f35b62000756600480360360608110156200068557600080fd5b810190808035906020019092919080359060200190640100000000811115620006ad57600080fd5b820183602082011115620006c057600080fd5b80359060200191846001830284011164010000000083111715620006e357600080fd5b91908080601f016020809104026020016040519081016040528093929190818152602001838380828437600081840152601f19601f820116905080830192505050505050509192919290803573ffffffffffffffffffffffffffffffffffffffff16906020019092919050505062001677565b6040518082815260200191505060405180910390f35b6200079b600480360360208110156200078457600080fd5b810190808035906020019092919050505062001858565b6040518082815260200191505060405180910390f35b6200088660048036036060811015620007c957600080fd5b810190808035906020019092919080351515906020019092919080359060200190640100000000811115620007fd57600080fd5b8201836020820111156200081057600080fd5b803590602001918460018302840111640100000000831117156200083357600080fd5b91908080601f016020809104026020016040519081016040528093929190818152602001838380828437600081840152601f19601f82011690508083019250505050505050919291929050505062001990565b6040518082815260200191505060405180910390f35b620008cb60048036036020811015620008b457600080fd5b810190808035906020019092919050505062001b49565b604051808d81526020018c8152602001806020018b81526020018a73ffffffffffffffffffffffffffffffffffffffff1673ffffffffffffffffffffffffffffffffffffffff1681526020018973ffffffffffffffffffffffffffffffffffffffff1673ffffffffffffffffffffffffffffffffffffffff1681526020018873ffffffffffffffffffffffffffffffffffffffff1673ffffffffffffffffffffffffffffffffffffffff168152602001806020018781526020018681526020018581526020018415151515815260200183810383528d818151815260200191508051906020019080838360005b83811015620009d5578082015181840152602081019050620009b8565b50505050905090810190601f16801562000a035780820380516001836020036101000a031916815260200191505b50838103825288818151815260200191508051906020019080838360005b8381101562000a3e57808201518184015260208101905062000a21565b50505050905090810190601f16801562000a6c5780820380516001836020036101000a031916815260200191505b509e50505050505050505050505050505060405180910390f35b62000ae3600480360360a081101562000a9e57600080fd5b8101908080359060200190929190803515159060200190929190803590602001909291908035151590602001909291908035151590602001909291905050506200238a565b6040518082815260200191505060405180910390f35b62000b286004803603602081101562000b1157600080fd5b8101908080359060200190929190505050620024f5565b6040518082815260200191505060405180910390f35b62000b6d6004803603602081101562000b5657600080fd5b81019080803590602001909291905050506200262d565b6040518082815260200191505060405180910390f35b6000806000838154811062000b9457fe5b9060005260206000200160009054906101000a900473ffffffffffffffffffffffffffffffffffffffff1690508073ffffffffffffffffffffffffffffffffffffffff1663d56798a46040518163ffffffff1660e01b8152600401600060405180830381600087803b15801562000c0a57600080fd5b505af115801562000c1f573d6000803e3d6000fd5b505050508073ffffffffffffffffffffffffffffffffffffffff1663f1b6dccd6040518163ffffffff1660e01b815260040160206040518083038186803b15801562000c6a57600080fd5b505afa15801562000c7f573d6000803e3d6000fd5b505050506040513d602081101562000c9657600080fd5b8101908080519060200190929190505050600c81111562000cb357fe5b915050919050565b6000806000878154811062000ccc57fe5b9060005260206000200160009054906101000a900473ffffffffffffffffffffffffffffffffffffffff1690508073ffffffffffffffffffffffffffffffffffffffff16638b274761878787876040518563ffffffff1660e01b815260040180851515151581526020018415151515815260200183815260200182151515158152602001945050505050600060405180830381600087803b15801562000d7157600080fd5b505af115801562000d86573d6000803e3d6000fd5b505050508073ffffffffffffffffffffffffffffffffffffffff1663f1b6dccd6040518163ffffffff1660e01b815260040160206040518083038186803b15801562000dd157600080fd5b505afa15801562000de6573d6000803e3d6000fd5b505050506040513d602081101562000dfd57600080fd5b8101908080519060200190929190505050600c81111562000e1a57fe5b91505095945050505050565b6000806000838154811062000e3757fe5b9060005260206000200160009054906101000a900473ffffffffffffffffffffffffffffffffffffffff1690508073ffffffffffffffffffffffffffffffffffffffff1663cba598276040518163ffffffff1660e01b8152600401600060405180830381600087803b15801562000ead57600080fd5b505af115801562000ec2573d6000803e3d6000fd5b505050508073ffffffffffffffffffffffffffffffffffffffff1663f1b6dccd6040518163ffffffff1660e01b815260040160206040518083038186803b15801562000f0d57600080fd5b505afa15801562000f22573d6000803e3d6000fd5b505050506040513d602081101562000f3957600080fd5b8101908080519060200190929190505050600c81111562000f5657fe5b915050919050565b6000806000838154811062000f6f57fe5b9060005260206000200160009054906101000a900473ffffffffffffffffffffffffffffffffffffffff1690508073ffffffffffffffffffffffffffffffffffffffff1663cae18a726040518163ffffffff1660e01b8152600401600060405180830381600087803b15801562000fe557600080fd5b505af115801562000ffa573d6000803e3d6000fd5b505050508073ffffffffffffffffffffffffffffffffffffffff1663f1b6dccd6040518163ffffffff1660e01b815260040160206040518083038186803b1580156200104557600080fd5b505afa1580156200105a573d6000803e3d6000fd5b505050506040513d60208110156200107157600080fd5b8101908080519060200190929190505050600c8111156200108e57fe5b915050919050565b60015481565b60008060008a81548110620010ad57fe5b9060005260206000200160009054906101000a900473ffffffffffffffffffffffffffffffffffffffff1690508073ffffffffffffffffffffffffffffffffffffffff1663763ea2f38a8a8a8a8a8a8a6040518863ffffffff1660e01b8152600401808815151515815260200187815260200186815260200185815260200184815260200183815260200182151515158152602001975050505050505050600060405180830381600087803b1580156200116657600080fd5b505af11580156200117b573d6000803e3d6000fd5b505050508073ffffffffffffffffffffffffffffffffffffffff1663f1b6dccd6040518163ffffffff1660e01b815260040160206040518083038186803b158015620011c657600080fd5b505afa158015620011db573d6000803e3d6000fd5b505050506040513d6020811015620011f257600080fd5b8101908080519060200190929190505050600c8111156200120f57fe5b91505098975050505050505050565b6000808d8d8d8d8d8d8d8d8d8d8d8d6040516200123b9062002765565b808d8152602001806020018c73ffffffffffffffffffffffffffffffffffffffff1673ffffffffffffffffffffffffffffffffffffffff1681526020018b81526020018a73ffffffffffffffffffffffffffffffffffffffff1673ffffffffffffffffffffffffffffffffffffffff168152602001806020018973ffffffffffffffffffffffffffffffffffffffff1673ffffffffffffffffffffffffffffffffffffffff168152602001806020018881526020018781526020018681526020018515151515815260200184810384528f818151815260200191508051906020019080838360005b838110156200134057808201518184015260208101905062001323565b50505050905090810190601f1680156200136e5780820380516001836020036101000a031916815260200191505b5084810383528b818151815260200191508051906020019080838360005b83811015620013a95780820151818401526020810190506200138c565b50505050905090810190601f168015620013d75780820380516001836020036101000a031916815260200191505b50848103825289818151815260200191508051906020019080838360005b8381101562001412578082015181840152602081019050620013f5565b50505050905090810190601f168015620014405780820380516001836020036101000a031916815260200191505b509f50505050505050505050505050505050604051809103906000f0801580156200146f573d6000803e3d6000fd5b50905060008190806001815401808255809150509060018203906000526020600020016000909192909190916101000a81548173ffffffffffffffffffffffffffffffffffffffff021916908373ffffffffffffffffffffffffffffffffffffffff1602179055505060016000815480929190600101919050555060018054039150509c9b505050505050505050505050565b600081815481106200151057fe5b906000526020600020016000915054906101000a900473ffffffffffffffffffffffffffffffffffffffff1681565b600080600083815481106200155057fe5b9060005260206000200160009054906101000a900473ffffffffffffffffffffffffffffffffffffffff1690508073ffffffffffffffffffffffffffffffffffffffff166395a3ca596040518163ffffffff1660e01b8152600401600060405180830381600087803b158015620015c657600080fd5b505af1158015620015db573d6000803e3d6000fd5b505050508073ffffffffffffffffffffffffffffffffffffffff1663f1b6dccd6040518163ffffffff1660e01b815260040160206040518083038186803b1580156200162657600080fd5b505afa1580156200163b573d6000803e3d6000fd5b505050506040513d60208110156200165257600080fd5b8101908080519060200190929190505050600c8111156200166f57fe5b915050919050565b600080600085815481106200168857fe5b9060005260206000200160009054906101000a900473ffffffffffffffffffffffffffffffffffffffff1690508073ffffffffffffffffffffffffffffffffffffffff16636dd8298e85856040518363ffffffff1660e01b815260040180806020018373ffffffffffffffffffffffffffffffffffffffff1673ffffffffffffffffffffffffffffffffffffffff168152602001828103825284818151815260200191508051906020019080838360005b838110156200175657808201518184015260208101905062001739565b50505050905090810190601f168015620017845780820380516001836020036101000a031916815260200191505b509350505050600060405180830381600087803b158015620017a557600080fd5b505af1158015620017ba573d6000803e3d6000fd5b505050508073ffffffffffffffffffffffffffffffffffffffff1663f1b6dccd6040518163ffffffff1660e01b815260040160206040518083038186803b1580156200180557600080fd5b505afa1580156200181a573d6000803e3d6000fd5b505050506040513d60208110156200183157600080fd5b8101908080519060200190929190505050600c8111156200184e57fe5b9150509392505050565b600080600083815481106200186957fe5b9060005260206000200160009054906101000a900473ffffffffffffffffffffffffffffffffffffffff1690508073ffffffffffffffffffffffffffffffffffffffff16637417472b6040518163ffffffff1660e01b8152600401600060405180830381600087803b158015620018df57600080fd5b505af1158015620018f4573d6000803e3d6000fd5b505050508073ffffffffffffffffffffffffffffffffffffffff1663f1b6dccd6040518163ffffffff1660e01b815260040160206040518083038186803b1580156200193f57600080fd5b505afa15801562001954573d6000803e3d6000fd5b505050506040513d60208110156200196b57600080fd5b8101908080519060200190929190505050600c8111156200198857fe5b915050919050565b60008060008581548110620019a157fe5b9060005260206000200160009054906101000a900473ffffffffffffffffffffffffffffffffffffffff1690508073ffffffffffffffffffffffffffffffffffffffff166397604e3985856040518363ffffffff1660e01b8152600401808315151515815260200180602001828103825283818151815260200191508051906020019080838360005b8381101562001a4757808201518184015260208101905062001a2a565b50505050905090810190601f16801562001a755780820380516001836020036101000a031916815260200191505b509350505050600060405180830381600087803b15801562001a9657600080fd5b505af115801562001aab573d6000803e3d6000fd5b505050508073ffffffffffffffffffffffffffffffffffffffff1663f1b6dccd6040518163ffffffff1660e01b815260040160206040518083038186803b15801562001af657600080fd5b505afa15801562001b0b573d6000803e3d6000fd5b505050506040513d602081101562001b2257600080fd5b8101908080519060200190929190505050600c81111562001b3f57fe5b9150509392505050565b600080606060008060008060606000806000806000808e8154811062001b6b57fe5b9060005260206000200160009054906101000a900473ffffffffffffffffffffffffffffffffffffffff1690508073ffffffffffffffffffffffffffffffffffffffff16639d94f4c86040518163ffffffff1660e01b815260040160206040518083038186803b15801562001bdf57600080fd5b505afa15801562001bf4573d6000803e3d6000fd5b505050506040513d602081101562001c0b57600080fd5b81019080805190602001909291905050508173ffffffffffffffffffffffffffffffffffffffff1663314bba3f6040518163ffffffff1660e01b815260040160206040518083038186803b15801562001c6357600080fd5b505afa15801562001c78573d6000803e3d6000fd5b505050506040513d602081101562001c8f57600080fd5b81019080805190602001909291905050508273ffffffffffffffffffffffffffffffffffffffff1663bf6864536040518163ffffffff1660e01b815260040160006040518083038186803b15801562001ce757600080fd5b505afa15801562001cfc573d6000803e3d6000fd5b505050506040513d6000823e3d601f19601f82011682018060405250602081101562001d2757600080fd5b810190808051604051939291908464010000000082111562001d4857600080fd5b8382019150602082018581111562001d5f57600080fd5b825186600182028301116401000000008211171562001d7d57600080fd5b8083526020830192505050908051906020019080838360005b8381101562001db357808201518184015260208101905062001d96565b50505050905090810190601f16801562001de15780820380516001836020036101000a031916815260200191505b506040525050508373ffffffffffffffffffffffffffffffffffffffff1663f1b6dccd6040518163ffffffff1660e01b815260040160206040518083038186803b15801562001e2f57600080fd5b505afa15801562001e44573d6000803e3d6000fd5b505050506040513d602081101562001e5b57600080fd5b8101908080519060200190929190505050600c81111562001e7857fe5b8473ffffffffffffffffffffffffffffffffffffffff1663806dd4646040518163ffffffff1660e01b815260040160206040518083038186803b15801562001ebf57600080fd5b505afa15801562001ed4573d6000803e3d6000fd5b505050506040513d602081101562001eeb57600080fd5b81019080805190602001909291905050508573ffffffffffffffffffffffffffffffffffffffff1663cdc248906040518163ffffffff1660e01b815260040160206040518083038186803b15801562001f4357600080fd5b505afa15801562001f58573d6000803e3d6000fd5b505050506040513d602081101562001f6f57600080fd5b81019080805190602001909291905050508673ffffffffffffffffffffffffffffffffffffffff1663ea8c1bd56040518163ffffffff1660e01b815260040160206040518083038186803b15801562001fc757600080fd5b505afa15801562001fdc573d6000803e3d6000fd5b505050506040513d602081101562001ff357600080fd5b81019080805190602001909291905050508773ffffffffffffffffffffffffffffffffffffffff16634afb7e796040518163ffffffff1660e01b815260040160006040518083038186803b1580156200204b57600080fd5b505afa15801562002060573d6000803e3d6000fd5b505050506040513d6000823e3d601f19601f8201168201806040525060208110156200208b57600080fd5b8101908080516040519392919084640100000000821115620020ac57600080fd5b83820191506020820185811115620020c357600080fd5b8251866001820283011164010000000082111715620020e157600080fd5b8083526020830192505050908051906020019080838360005b8381101562002117578082015181840152602081019050620020fa565b50505050905090810190601f168015620021455780820380516001836020036101000a031916815260200191505b506040525050508873ffffffffffffffffffffffffffffffffffffffff16630c5c209d6040518163ffffffff1660e01b815260040160206040518083038186803b1580156200219357600080fd5b505afa158015620021a8573d6000803e3d6000fd5b505050506040513d6020811015620021bf57600080fd5b81019080805190602001909291905050508973ffffffffffffffffffffffffffffffffffffffff1663e75360af6040518163ffffffff1660e01b815260040160206040518083038186803b1580156200221757600080fd5b505afa1580156200222c573d6000803e3d6000fd5b505050506040513d60208110156200224357600080fd5b81019080805190602001909291905050508a73ffffffffffffffffffffffffffffffffffffffff16638fe6c2dd6040518163ffffffff1660e01b815260040160206040518083038186803b1580156200229b57600080fd5b505afa158015620022b0573d6000803e3d6000fd5b505050506040513d6020811015620022c757600080fd5b81019080805190602001909291905050508b73ffffffffffffffffffffffffffffffffffffffff1663aa9287516040518163ffffffff1660e01b815260040160206040518083038186803b1580156200231f57600080fd5b505afa15801562002334573d6000803e3d6000fd5b505050506040513d60208110156200234b57600080fd5b81019080805190602001909291905050508999508494509c509c509c509c509c509c509c509c509c509c509c509c505091939597999b5091939597999b565b600080600087815481106200239b57fe5b9060005260206000200160009054906101000a900473ffffffffffffffffffffffffffffffffffffffff1690508073ffffffffffffffffffffffffffffffffffffffff1663d70f5cb1878787876040518563ffffffff1660e01b815260040180851515151581526020018481526020018315151515815260200182151515158152602001945050505050600060405180830381600087803b1580156200244057600080fd5b505af115801562002455573d6000803e3d6000fd5b505050508073ffffffffffffffffffffffffffffffffffffffff1663f1b6dccd6040518163ffffffff1660e01b815260040160206040518083038186803b158015620024a057600080fd5b505afa158015620024b5573d6000803e3d6000fd5b505050506040513d6020811015620024cc57600080fd5b8101908080519060200190929190505050600c811115620024e957fe5b91505095945050505050565b600080600083815481106200250657fe5b9060005260206000200160009054906101000a900473ffffffffffffffffffffffffffffffffffffffff1690508073ffffffffffffffffffffffffffffffffffffffff166348e7c9546040518163ffffffff1660e01b8152600401600060405180830381600087803b1580156200257c57600080fd5b505af115801562002591573d6000803e3d6000fd5b505050508073ffffffffffffffffffffffffffffffffffffffff1663f1b6dccd6040518163ffffffff1660e01b815260040160206040518083038186803b158015620025dc57600080fd5b505afa158015620025f1573d6000803e3d6000fd5b505050506040513d60208110156200260857600080fd5b8101908080519060200190929190505050600c8111156200262557fe5b915050919050565b600080600083815481106200263e57fe5b9060005260206000200160009054906101000a900473ffffffffffffffffffffffffffffffffffffffff1690508073ffffffffffffffffffffffffffffffffffffffff1663ab40fc8a6040518163ffffffff1660e01b8152600401600060405180830381600087803b158015620026b457600080fd5b505af1158015620026c9573d6000803e3d6000fd5b505050508073ffffffffffffffffffffffffffffffffffffffff1663f1b6dccd6040518163ffffffff1660e01b815260040160206040518083038186803b1580156200271457600080fd5b505afa15801562002729573d6000803e3d6000fd5b505050506040513d60208110156200274057600080fd5b8101908080519060200190929190505050600c8111156200275d57fe5b915050919050565b611dec80620027748339019056fe60806040523480156200001157600080fd5b5060405162001dec38038062001dec83398181016040526101808110156200003857600080fd5b8101908080519060200190929190805160405193929190846401000000008211156200006357600080fd5b838201915060208201858111156200007a57600080fd5b82518660018202830111640100000000821117156200009857600080fd5b8083526020830192505050908051906020019080838360005b83811015620000ce578082015181840152602081019050620000b1565b50505050905090810190601f168015620000fc5780820380516001836020036101000a031916815260200191505b50604052602001805190602001909291908051906020019092919080519060200190929190805160405193929190846401000000008211156200013e57600080fd5b838201915060208201858111156200015557600080fd5b82518660018202830111640100000000821117156200017357600080fd5b8083526020830192505050908051906020019080838360005b83811015620001a95780820151818401526020810190506200018c565b50505050905090810190601f168015620001d75780820380516001836020036101000a031916815260200191505b5060405260200180519060200190929190805160405193929190846401000000008211156200020557600080fd5b838201915060208201858111156200021c57600080fd5b82518660018202830111640100000000821117156200023a57600080fd5b8083526020830192505050908051906020019080838360005b838110156200027057808201518184015260208101905062000253565b50505050905090810190601f1680156200029e5780820380516001836020036101000a031916815260200191505b506040526020018051906020019092919080519060200190929190805190602001909291908051906020019092919050505033600060016101000a81548173ffffffffffffffffffffffffffffffffffffffff021916908373ffffffffffffffffffffffffffffffffffffffff1602179055508b6004819055508a600590805190602001906200033092919062000492565b5089600660006101000a81548173ffffffffffffffffffffffffffffffffffffffff021916908373ffffffffffffffffffffffffffffffffffffffff1602179055508860078190555087600860006101000a81548173ffffffffffffffffffffffffffffffffffffffff021916908373ffffffffffffffffffffffffffffffffffffffff1602179055508660099080519060200190620003d292919062000492565b5085600a60006101000a81548173ffffffffffffffffffffffffffffffffffffffff021916908373ffffffffffffffffffffffffffffffffffffffff16021790555084600b90805190602001906200042c92919062000492565b5083600c8190555082600d8190555081600e8190555080600f60006101000a81548160ff02191690831515021790555060008060006101000a81548160ff0219169083600c8111156200047b57fe5b021790555050505050505050505050505062000541565b828054600181600116156101000203166002900490600052602060002090601f016020900481019282601f10620004d557805160ff191683800117855562000506565b8280016001018555821562000506579182015b8281111562000505578251825591602001919060010190620004e8565b5b50905062000515919062000519565b5090565b6200053e91905b808211156200053a57600081600090555060010162000520565b5090565b90565b61189b80620005516000396000f3fe608060405234801561001057600080fd5b50600436106102a05760003560e01c806395a3ca5911610167578063c9b0a2a7116100ce578063d70f5cb111610087578063d70f5cb114610bdb578063dc7a790214610c2d578063e75360af14610cb0578063ea8c1bd514610cce578063f1b6dccd14610d18578063f95d2f5714610d44576102a0565b8063c9b0a2a714610b33578063cae18a7214610b55578063cba5982714610b5f578063cdc2489014610b69578063d3e3a0ef14610bb3578063d56798a414610bd1576102a0565b8063a9e6488c11610120578063a9e6488c146109bd578063aa928751146109df578063ab40fc8a14610a01578063b867002d14610a0b578063baf0b74314610a2d578063bf68645314610ab0576102a0565b806395a3ca591461084457806397604e391461084e5780639913976e146109155780639d94f4c814610937578063a1c12e6b14610955578063a6b703fe1461099f576102a0565b80636dd8298e1161020b57806381715fc9116101c457806381715fc9146106cb578063879c1d1b146106e95780638a69a96e146107075780638b2747611461078a5780638fe6c2dd146107dc578063924a6917146107fa576102a0565b80636dd8298e146104c25780637417472b1461059d578063763ea2f3146105a757806377ae8d85146106155780637f196f5414610637578063806dd46414610681576102a0565b80632633f3941161025d5780632633f3941461038d578063314bba3f146103ab5780633f51e53f146103c957806348e7c954146104135780634afb7e791461041d5780636b4dc258146104a0576102a0565b8063026572ce146102a557806303a9e943146102c35780630c5c209d146102e55780631b9c1524146103035780631d0f9117146103215780631ec57f6c14610343575b600080fd5b6102ad610d66565b6040518082815260200191505060405180910390f35b6102cb610d6c565b604051808215151515815260200191505060405180910390f35b6102ed610d7f565b6040518082815260200191505060405180910390f35b61030b610d85565b6040518082815260200191505060405180910390f35b610329610d8b565b604051808215151515815260200191505060405180910390f35b61034b610d9e565b604051808273ffffffffffffffffffffffffffffffffffffffff1673ffffffffffffffffffffffffffffffffffffffff16815260200191505060405180910390f35b610395610dc4565b6040518082815260200191505060405180910390f35b6103b3610dca565b6040518082815260200191505060405180910390f35b6103d1610dd0565b604051808273ffffffffffffffffffffffffffffffffffffffff1673ffffffffffffffffffffffffffffffffffffffff16815260200191505060405180910390f35b61041b610df6565b005b610425610e1b565b6040518080602001828103825283818151815260200191508051906020019080838360005b8381101561046557808201518184015260208101905061044a565b50505050905090810190601f1680156104925780820380516001836020036101000a031916815260200191505b509250505060405180910390f35b6104a8610eb9565b604051808215151515815260200191505060405180910390f35b61059b600480360360408110156104d857600080fd5b81019080803590602001906401000000008111156104f557600080fd5b82018360208201111561050757600080fd5b8035906020019184600183028401116401000000008311171561052957600080fd5b91908080601f016020809104026020016040519081016040528093929190818152602001838380828437600081840152601f19601f820116905080830192505050505050509192919290803573ffffffffffffffffffffffffffffffffffffffff169060200190929190505050610ecc565b005b6105a5610f4b565b005b610613600480360360e08110156105bd57600080fd5b810190808035151590602001909291908035906020019092919080359060200190929190803590602001909291908035906020019092919080359060200190929190803515159060200190929190505050610fb1565b005b61061d611034565b604051808215151515815260200191505060405180910390f35b61063f611047565b604051808273ffffffffffffffffffffffffffffffffffffffff1673ffffffffffffffffffffffffffffffffffffffff16815260200191505060405180910390f35b61068961106d565b604051808273ffffffffffffffffffffffffffffffffffffffff1673ffffffffffffffffffffffffffffffffffffffff16815260200191505060405180910390f35b6106d3611093565b6040518082815260200191505060405180910390f35b6106f1611099565b6040518082815260200191505060405180910390f35b61070f61109f565b6040518080602001828103825283818151815260200191508051906020019080838360005b8381101561074f578082015181840152602081019050610734565b50505050905090810190601f16801561077c5780820380516001836020036101000a031916815260200191505b509250505060405180910390f35b6107da600480360360808110156107a057600080fd5b810190808035151590602001909291908035151590602001909291908035906020019092919080351515906020019092919050505061113d565b005b6107e46111fc565b6040518082815260200191505060405180910390f35b610802611202565b604051808273ffffffffffffffffffffffffffffffffffffffff1673ffffffffffffffffffffffffffffffffffffffff16815260200191505060405180910390f35b61084c611228565b005b6109136004803603604081101561086457600080fd5b810190808035151590602001909291908035906020019064010000000081111561088d57600080fd5b82018360208201111561089f57600080fd5b803590602001918460018302840111640100000000831117156108c157600080fd5b91908080601f016020809104026020016040519081016040528093929190818152602001838380828437600081840152601f19601f82011690508083019250505050505050919291929050505061124d565b005b61091d6112a5565b604051808215151515815260200191505060405180910390f35b61093f6112b8565b6040518082815260200191505060405180910390f35b61095d6112be565b604051808273ffffffffffffffffffffffffffffffffffffffff1673ffffffffffffffffffffffffffffffffffffffff16815260200191505060405180910390f35b6109a76112e4565b6040518082815260200191505060405180910390f35b6109c56112ea565b604051808215151515815260200191505060405180910390f35b6109e76112fd565b604051808215151515815260200191505060405180910390f35b610a09611310565b005b610a13611376565b604051808215151515815260200191505060405180910390f35b610a35611389565b6040518080602001828103825283818151815260200191508051906020019080838360005b83811015610a75578082015181840152602081019050610a5a565b50505050905090810190601f168015610aa25780820380516001836020036101000a031916815260200191505b509250505060405180910390f35b610ab8611427565b6040518080602001828103825283818151815260200191508051906020019080838360005b83811015610af8578082015181840152602081019050610add565b50505050905090810190601f168015610b255780820380516001836020036101000a031916815260200191505b509250505060405180910390f35b610b3b6114c5565b604051808215151515815260200191505060405180910390f35b610b5d6114d8565b005b610b6761153e565b005b610b71611581565b604051808273ffffffffffffffffffffffffffffffffffffffff1673ffffffffffffffffffffffffffffffffffffffff16815260200191505060405180910390f35b610bbb6115a7565b6040518082815260200191505060405180910390f35b610bd96115ad565b005b610c2b60048036036080811015610bf157600080fd5b8101908080351515906020019092919080359060200190929190803515159060200190929190803515159060200190929190505050611613565b005b610c356116d2565b6040518080602001828103825283818151815260200191508051906020019080838360005b83811015610c75578082015181840152602081019050610c5a565b50505050905090810190601f168015610ca25780820380516001836020036101000a031916815260200191505b509250505060405180910390f35b610cb8611770565b6040518082815260200191505060405180910390f35b610cd6611776565b604051808273ffffffffffffffffffffffffffffffffffffffff1673ffffffffffffffffffffffffffffffffffffffff16815260200191505060405180910390f35b610d2061179c565b6040518082600c811115610d3057fe5b60ff16815260200191505060405180910390f35b610d4c6117ae565b604051808215151515815260200191505060405180910390f35b60145481565b601160009054906101000a900460ff1681565b600c5481565b60125481565b601360019054906101000a900460ff1681565b600260009054906101000a900473ffffffffffffffffffffffffffffffffffffffff1681565b60185481565b60075481565b601d60009054906101000a900473ffffffffffffffffffffffffffffffffffffffff1681565b600c6000806101000a81548160ff0219169083600c811115610e1457fe5b0217905550565b60098054600181600116156101000203166002900480601f016020809104026020016040519081016040528092919081815260200182805460018160011615610100020316600290048015610eb15780601f10610e8657610100808354040283529160200191610eb1565b820191906000526020600020905b815481529060010190602001808311610e9457829003601f168201915b505050505081565b601b60009054906101000a900460ff1681565b81601a9080519060200190610ee29291906117c1565b5080601d60006101000a81548173ffffffffffffffffffffffffffffffffffffffff021916908373ffffffffffffffffffffffffffffffffffffffff16021790555060096000806101000a81548160ff0219169083600c811115610f4257fe5b02179055505050565b33600360006101000a81548173ffffffffffffffffffffffffffffffffffffffff021916908373ffffffffffffffffffffffffffffffffffffffff16021790555060046000806101000a81548160ff0219169083600c811115610faa57fe5b0217905550565b86601360026101000a81548160ff021916908315150217905550856014819055508460158190555083601681905550826017819055508160188190555080601960006101000a81548160ff02191690831515021790555060066000806101000a81548160ff0219169083600c81111561102657fe5b021790555050505050505050565b601960009054906101000a900460ff1681565b600160009054906101000a900473ffffffffffffffffffffffffffffffffffffffff1681565b600660009054906101000a900473ffffffffffffffffffffffffffffffffffffffff1681565b60105481565b60155481565b601c8054600181600116156101000203166002900480601f0160208091040260200160405190810160405280929190818152602001828054600181600116156101000203166002900480156111355780601f1061110a57610100808354040283529160200191611135565b820191906000526020600020905b81548152906001019060200180831161111857829003601f168201915b505050505081565b33600160006101000a81548173ffffffffffffffffffffffffffffffffffffffff021916908373ffffffffffffffffffffffffffffffffffffffff16021790555083600f60016101000a81548160ff02191690831515021790555082600f60026101000a81548160ff0219169083151502179055508160108190555080601160006101000a81548160ff02191690831515021790555060036000806101000a81548160ff0219169083600c8111156111f157fe5b021790555050505050565b600e5481565b600360009054906101000a900473ffffffffffffffffffffffffffffffffffffffff1681565b600b6000806101000a81548160ff0219169083600c81111561124657fe5b0217905550565b81601b60006101000a81548160ff02191690831515021790555080601c908051906020019061127d9291906117c1565b50600a6000806101000a81548160ff0219169083600c81111561129c57fe5b02179055505050565b600f60019054906101000a900460ff1681565b60045481565b600060019054906101000a900473ffffffffffffffffffffffffffffffffffffffff1681565b60175481565b601360009054906101000a900460ff1681565b600f60009054906101000a900460ff1681565b33600060016101000a81548173ffffffffffffffffffffffffffffffffffffffff021916908373ffffffffffffffffffffffffffffffffffffffff16021790555060016000806101000a81548160ff0219169083600c81111561136f57fe5b0217905550565b601360029054906101000a900460ff1681565b60058054600181600116156101000203166002900480601f01602080910402602001604051908101604052809291908181526020018280546001816001161561010002031660029004801561141f5780601f106113f45761010080835404028352916020019161141f565b820191906000526020600020905b81548152906001019060200180831161140257829003601f168201915b505050505081565b600b8054600181600116156101000203166002900480601f0160208091040260200160405190810160405280929190818152602001828054600181600116156101000203166002900480156114bd5780601f10611492576101008083540402835291602001916114bd565b820191906000526020600020905b8154815290600101906020018083116114a057829003601f168201915b505050505081565b600f60029054906101000a900460ff1681565b33600060016101000a81548173ffffffffffffffffffffffffffffffffffffffff021916908373ffffffffffffffffffffffffffffffffffffffff16021790555060076000806101000a81548160ff0219169083600c81111561153757fe5b0217905550565b33600060016101000a81548173ffffffffffffffffffffffffffffffffffffffff021916908373ffffffffffffffffffffffffffffffffffffffff160217905550565b600860009054906101000a900473ffffffffffffffffffffffffffffffffffffffff1681565b60165481565b33600360006101000a81548173ffffffffffffffffffffffffffffffffffffffff021916908373ffffffffffffffffffffffffffffffffffffffff16021790555060026000806101000a81548160ff0219169083600c81111561160c57fe5b0217905550565b33600260006101000a81548173ffffffffffffffffffffffffffffffffffffffff021916908373ffffffffffffffffffffffffffffffffffffffff16021790555083601160016101000a81548160ff0219169083151502179055508260128190555081601360006101000a81548160ff02191690831515021790555080601360016101000a81548160ff02191690831515021790555060056000806101000a81548160ff0219169083600c8111156116c757fe5b021790555050505050565b601a8054600181600116156101000203166002900480601f0160208091040260200160405190810160405280929190818152602001828054600181600116156101000203166002900480156117685780601f1061173d57610100808354040283529160200191611768565b820191906000526020600020905b81548152906001019060200180831161174b57829003601f168201915b505050505081565b600d5481565b600a60009054906101000a900473ffffffffffffffffffffffffffffffffffffffff1681565b6000809054906101000a900460ff1681565b601160019054906101000a900460ff1681565b828054600181600116156101000203166002900490600052602060002090601f016020900481019282601f1061180257805160ff1916838001178555611830565b82800160010185558215611830579182015b8281111561182f578251825591602001919060010190611814565b5b50905061183d9190611841565b5090565b61186391905b8082111561185f576000816000905550600101611847565b5090565b9056fea265627a7a72315820a08ab4ef8cf50649430db630b43b2f883c430c1401d2ae38799c0474ca571c0b64736f6c63430005100032a265627a7a72315820924dd7c46fdb4523d681e89c0d6405526225b04a93550fa246bd1728da925b5e64736f6c63430005100032",
  "source": "// SPDX-License-Identifier: GPL-3.0\r\n\r\npragma solidity >=0.4.0 <0.8.0;\r\n// import './BlockSecure.sol';\r\n\r\n\r\ncontract SecureInsuranceContract\r\n{\r\n    enum StateType { BuyPolicy, RequestUnderwriting,BankUnderwriting,BankUnderwritingDone,MedicalUnderwriting,MedicalUnderwritingDone,FinalPolicyIssuance,ConfirmPolicyDetails,Rejected,ClaimVerificationFromHospital,ClaimVerificationDone,ClaimAcccepted,ClaimRejected}\r\n    StateType public  State;\r\n\r\n    address public  Buyer;\r\n    address public  BankUnderwriter;\r\n    address public  MedicalUnderwriter;\r\n    address public  InsuranceProvider;\r\n\r\n    int public AadhaarCardNumber;\r\n    string public Sex;\r\n    address public BankName;\r\n    int public AccountNumber;\r\n    address public InsurerName;\r\n    string public PolicyName;\r\n    address public HospitalName;\r\n    string public PAN;\r\n    int public SumAssured;\r\n    int public PolicyTerm;\r\n\r\n    int public PaymentTerm;\r\n    bool public PremiumPayment;\r\n    bool public CustomerVerification;\r\n    bool public Active;\r\n    int public FinancialHealthPoints;\r\n    bool public BankUnderwritingResult;\r\n    bool public ActiveStatus;\r\n    int public HealthScore;\r\n    bool public PhysicalVerification;\r\n    bool public MedicalUnderwriting;\r\n    bool public PremiumRecieved;\r\n    int public PolicyNumber;\r\n    int public IssuanceDate;\r\n    int public MaturityDate;\r\n    int public PremiumFinal;\r\n    int public  SumAssuredFinal;\r\n    bool public PolicyIssued;\r\n    string public ClaimReason;\r\n    bool public ClaimReasonVerification;\r\n    string public ClaimReasonRemark;\r\n    address public ClaimResponder;\r\n\r\n    constructor(int aadhaarCardNumber,string memory sex, address bankName, int accountNumber, address insurerName,string memory policyName,address hospitalName,string memory pan, int sumAssured,int policyTerm,int paymentTerm, bool premiumPayment) public {\r\n            Buyer = msg.sender;\r\n\r\n            AadhaarCardNumber=aadhaarCardNumber;\r\n            Sex=sex;\r\n            BankName=bankName;\r\n            AccountNumber=accountNumber;\r\n            InsurerName=insurerName;\r\n            PolicyName=policyName;\r\n            HospitalName=hospitalName;\r\n            PAN=pan;\r\n            SumAssured=sumAssured;\r\n            PolicyTerm=policyTerm;\r\n            PaymentTerm=paymentTerm;\r\n            PremiumPayment=premiumPayment;\r\n\r\n            State = StateType.BuyPolicy;\r\n    }\r\n\r\n    function ConfirmDetails() public {\r\n         Buyer = msg.sender;\r\n         State = StateType.RequestUnderwriting;\r\n    }\r\n\r\n    function SendToBankUnderwriter() public {\r\n        InsuranceProvider = msg.sender;\r\n        State = StateType.BankUnderwriting;\r\n    }\r\n\r\n    function UpdateFinancialHealth(bool customerVerification,bool active,int financialHealthPoints,bool bankUnderwritingResult) public {\r\n        BankUnderwriter = msg.sender;\r\n        CustomerVerification=customerVerification;\r\n        Active=active;\r\n        FinancialHealthPoints=financialHealthPoints;\r\n        BankUnderwritingResult=bankUnderwritingResult;\r\n\r\n        State = StateType.BankUnderwritingDone;\r\n    }\r\n    function  SendToMedicalUnderwriter() public {\r\n         InsuranceProvider = msg.sender;\r\n         State = StateType.MedicalUnderwriting;\r\n    }\r\n\r\n    function  UpdateMedicalHealth(bool activeStatus,int healthScore,bool physicalVerification,bool medicalUnderwriting) public {\r\n         MedicalUnderwriter = msg.sender;\r\n         ActiveStatus=activeStatus;\r\n         HealthScore=healthScore;\r\n         PhysicalVerification=physicalVerification;\r\n         MedicalUnderwriting=medicalUnderwriting;\r\n\r\n         State = StateType.MedicalUnderwritingDone;\r\n    }\r\n\r\n    function RecalculatePolicy(bool premiumRecieved,int policyNumber,int issuanceDate,int maturityDate,int premiumFinal,int sumAssuredFinal,bool policyIssued ) public {\r\n        PremiumRecieved=premiumRecieved;\r\n        PolicyNumber=policyNumber;\r\n        IssuanceDate=issuanceDate;\r\n        MaturityDate=maturityDate;\r\n        PremiumFinal=premiumFinal;\r\n        SumAssuredFinal=sumAssuredFinal;\r\n        PolicyIssued=policyIssued;\r\n\r\n        State = StateType.FinalPolicyIssuance;\r\n    }\r\n    function ConfirmPolicy() public {\r\n        Buyer = msg.sender;\r\n        State = StateType.ConfirmPolicyDetails;\r\n    }\r\n    function Reject() public {\r\n        Buyer = msg.sender;\r\n    }\r\n\r\n    function InvokeClaim(string memory claimReason,address claimResponder) public {\r\n        ClaimReason = claimReason;\r\n        ClaimResponder=claimResponder;\r\n        State = StateType.ClaimVerificationFromHospital;\r\n    }\r\n\r\n    function SubmitClaimDetails(bool claimReasonVerification,string memory claimReasonRemark) public {\r\n        ClaimReasonVerification = claimReasonVerification;\r\n        ClaimReasonRemark=claimReasonRemark;\r\n        State = StateType.ClaimVerificationDone;\r\n    }\r\n     function ClaimRequestAccepted() public {\r\n        State = StateType.ClaimAcccepted;\r\n    }\r\n     function ClaimRequestRejected() public {\r\n        State = StateType.ClaimRejected;\r\n    }\r\n}\r\n// this contract is deployed only once\r\n// all the insurances are updated as a part of state update\r\n// an automated deployer for all insurances\r\ncontract BlockSecureDeployer {\r\n    // a list that holds all the insurances\r\n    SecureInsuranceContract[] public insurances;\r\n    uint public insuranceCounter;\r\n    constructor() public {\r\n        insuranceCounter=0;\r\n    }\r\n    function ApplyForInsurance(int aadhaarCardNumber,string memory sex, address bankName, int accountNumber, address insurerName,string memory policyName,address hospitalName,string memory pan, int sumAssured,int policyTerm,int paymentTerm, bool premiumPayment) public returns (uint) {\r\n        // create an instance of the insurance contract here\r\n        SecureInsuranceContract insurance = new SecureInsuranceContract(aadhaarCardNumber, sex, bankName, accountNumber, insurerName, policyName, hospitalName, pan, sumAssured, policyTerm, paymentTerm, premiumPayment);\r\n        // add to the list of insurances\r\n        insurances.push(insurance);\r\n        insuranceCounter++;\r\n        return (uint(insuranceCounter-1));\r\n    }\r\n    function FetchInsuranceByIndex(uint idx) public view returns (int aadhaarCardNumber, int accountNumber, string memory pan, uint state, address bankName, address insurerName, address hospitalName, string memory policyName, int sumAssured, int policyTerm, int paymentTerm, bool premiumPayment) {\r\n        SecureInsuranceContract SIC = SecureInsuranceContract(insurances[idx]);\r\n        return (SIC.AadhaarCardNumber(), SIC.AccountNumber(), SIC.PAN(), uint(SIC.State()), SIC.BankName(), SIC.InsurerName(), SIC.HospitalName(), SIC.PolicyName(), SIC.SumAssured(), SIC.PolicyTerm(), SIC.PaymentTerm(), SIC.PremiumPayment());\r\n    }\r\n    function ConfirmDetails(uint idx) public returns (uint) {\r\n        // fetch the required insurance\r\n        SecureInsuranceContract SIC = SecureInsuranceContract(insurances[idx]);\r\n        SIC.ConfirmDetails();\r\n        return uint(SIC.State());\r\n    }\r\n    function SendToBankUnderwriter(uint idx) public returns (uint) {\r\n        // fetch the required insurance\r\n        SecureInsuranceContract SIC = SecureInsuranceContract(insurances[idx]);\r\n        SIC.SendToBankUnderwriter();\r\n        return uint(SIC.State());\r\n    }\r\n    function UpdateFinancialHealth(uint idx, bool customerVerification, bool active, int financialHealthPoints, bool bankUnderwritingResult) public returns (uint) {\r\n        // fetch the required insurance\r\n        SecureInsuranceContract SIC = SecureInsuranceContract(insurances[idx]);\r\n        SIC.UpdateFinancialHealth(customerVerification, active, financialHealthPoints, bankUnderwritingResult);\r\n        return uint(SIC.State());        \r\n    }\r\n    function SendToMedicalUnderwriter(uint idx) public returns (uint) {\r\n        // fetch the required insurance\r\n        SecureInsuranceContract SIC = SecureInsuranceContract(insurances[idx]);\r\n        SIC.SendToMedicalUnderwriter();\r\n        return uint(SIC.State());        \r\n    }\r\n    function UpdateMedicalHealth(uint idx, bool activeStatus, int healthScore, bool physicalVerification, bool medicalUnderwriting) public returns (uint) {\r\n        SecureInsuranceContract SIC = SecureInsuranceContract(insurances[idx]);\r\n        SIC.UpdateMedicalHealth(activeStatus, healthScore, physicalVerification, medicalUnderwriting);\r\n        return uint(SIC.State());          \r\n    } \r\n    function RecalculatePolicy(uint idx, bool premiumReceived, int policyNumber, int issuanceDate, int maturityDate, int premiumFinal, int sumAssuredFinal, bool policyIssued) public returns (uint) {\r\n        SecureInsuranceContract SIC = SecureInsuranceContract(insurances[idx]);\r\n        SIC.RecalculatePolicy(premiumReceived, policyNumber, issuanceDate, maturityDate, premiumFinal, sumAssuredFinal, policyIssued);\r\n        return uint(SIC.State());        \r\n    }\r\n    function ConfirmPolicy(uint idx) public returns (uint) {\r\n        SecureInsuranceContract SIC = SecureInsuranceContract(insurances[idx]);\r\n        SIC.ConfirmPolicy();\r\n        return uint(SIC.State());         \r\n    }\r\n    function Reject(uint idx) public returns (uint) {\r\n        SecureInsuranceContract SIC = SecureInsuranceContract(insurances[idx]);\r\n        SIC.Reject();\r\n        return uint(SIC.State());       \r\n    }\r\n    function InvokeClaim(uint idx, string memory claimReason, address claimResponder) public returns (uint) {\r\n        SecureInsuranceContract SIC = SecureInsuranceContract(insurances[idx]);\r\n        SIC.InvokeClaim(claimReason, claimResponder);\r\n        return uint(SIC.State());\r\n    }\r\n    function SubmitClaimDetails(uint idx, bool claimReasonVerification, string memory claimReasonRemark) public returns (uint) {\r\n        SecureInsuranceContract SIC = SecureInsuranceContract(insurances[idx]);\r\n        SIC.SubmitClaimDetails(claimReasonVerification, claimReasonRemark);\r\n        return uint(SIC.State());\r\n    }\r\n    function ClaimRequestAccepted(uint idx) public returns (uint) {\r\n        SecureInsuranceContract SIC = SecureInsuranceContract(insurances[idx]);\r\n        SIC.ClaimRequestAccepted();\r\n        return uint(SIC.State());\r\n    }\r\n    function ClaimRequestRejected(uint idx) public returns (uint) {\r\n        SecureInsuranceContract SIC = SecureInsuranceContract(insurances[idx]);\r\n        SIC.ClaimRequestRejected();\r\n        return uint(SIC.State());\r\n    }\r\n\r\n}\r\n",
  "sourcePath": "E:/DEV/ethereum/insurance-reformed/contracts/BlockSecureDeployer.sol",
  "compiler": {
    "name": "solc",
    "version": "0.5.16+commit.9c3226ce.Emscripten.clang"
  },
  "schemaVersion": "3.3.3",
  "updatedAt": "2021-02-02T15:51:18.168Z",
  "networkType": "ethereum",
  "devdoc": {
    "methods": {}
  },
  "userdoc": {
    "methods": {}
  }
}