{
  "contractName": "SecureInsuranceContract",
  "abi": [
    {
      "inputs": [
        {
          "internalType": "int256",
          "name": "aadhaarCardNumber",
          "type": "int256"
        },
        {
          "internalType": "string",
          "name": "sex",
          "type": "string"
        },
        {
          "internalType": "address",
          "name": "bankName",
          "type": "address"
        },
        {
          "internalType": "int256",
          "name": "accountNumber",
          "type": "int256"
        },
        {
          "internalType": "address",
          "name": "insurerName",
          "type": "address"
        },
        {
          "internalType": "string",
          "name": "policyName",
          "type": "string"
        },
        {
          "internalType": "address",
          "name": "hospitalName",
          "type": "address"
        },
        {
          "internalType": "string",
          "name": "pan",
          "type": "string"
        },
        {
          "internalType": "int256",
          "name": "sumAssured",
          "type": "int256"
        },
        {
          "internalType": "int256",
          "name": "policyTerm",
          "type": "int256"
        },
        {
          "internalType": "int256",
          "name": "paymentTerm",
          "type": "int256"
        },
        {
          "internalType": "bool",
          "name": "premiumPayment",
          "type": "bool"
        }
      ],
      "payable": false,
      "stateMutability": "nonpayable",
      "type": "constructor"
    },
    {
      "constant": true,
      "inputs": [],
      "name": "AadhaarCardNumber",
      "outputs": [
        {
          "internalType": "int256",
          "name": "",
          "type": "int256"
        }
      ],
      "payable": false,
      "stateMutability": "view",
      "type": "function"
    },
    {
      "constant": true,
      "inputs": [],
      "name": "AccountNumber",
      "outputs": [
        {
          "internalType": "int256",
          "name": "",
          "type": "int256"
        }
      ],
      "payable": false,
      "stateMutability": "view",
      "type": "function"
    },
    {
      "constant": true,
      "inputs": [],
      "name": "Active",
      "outputs": [
        {
          "internalType": "bool",
          "name": "",
          "type": "bool"
        }
      ],
      "payable": false,
      "stateMutability": "view",
      "type": "function"
    },
    {
      "constant": true,
      "inputs": [],
      "name": "ActiveStatus",
      "outputs": [
        {
          "internalType": "bool",
          "name": "",
          "type": "bool"
        }
      ],
      "payable": false,
      "stateMutability": "view",
      "type": "function"
    },
    {
      "constant": true,
      "inputs": [],
      "name": "BankName",
      "outputs": [
        {
          "internalType": "address",
          "name": "",
          "type": "address"
        }
      ],
      "payable": false,
      "stateMutability": "view",
      "type": "function"
    },
    {
      "constant": true,
      "inputs": [],
      "name": "BankUnderwriter",
      "outputs": [
        {
          "internalType": "address",
          "name": "",
          "type": "address"
        }
      ],
      "payable": false,
      "stateMutability": "view",
      "type": "function"
    },
    {
      "constant": true,
      "inputs": [],
      "name": "BankUnderwritingResult",
      "outputs": [
        {
          "internalType": "bool",
          "name": "",
          "type": "bool"
        }
      ],
      "payable": false,
      "stateMutability": "view",
      "type": "function"
    },
    {
      "constant": true,
      "inputs": [],
      "name": "Buyer",
      "outputs": [
        {
          "internalType": "address",
          "name": "",
          "type": "address"
        }
      ],
      "payable": false,
      "stateMutability": "view",
      "type": "function"
    },
    {
      "constant": true,
      "inputs": [],
      "name": "ClaimReason",
      "outputs": [
        {
          "internalType": "string",
          "name": "",
          "type": "string"
        }
      ],
      "payable": false,
      "stateMutability": "view",
      "type": "function"
    },
    {
      "constant": true,
      "inputs": [],
      "name": "ClaimReasonRemark",
      "outputs": [
        {
          "internalType": "string",
          "name": "",
          "type": "string"
        }
      ],
      "payable": false,
      "stateMutability": "view",
      "type": "function"
    },
    {
      "constant": true,
      "inputs": [],
      "name": "ClaimReasonVerification",
      "outputs": [
        {
          "internalType": "bool",
          "name": "",
          "type": "bool"
        }
      ],
      "payable": false,
      "stateMutability": "view",
      "type": "function"
    },
    {
      "constant": true,
      "inputs": [],
      "name": "ClaimResponder",
      "outputs": [
        {
          "internalType": "address",
          "name": "",
          "type": "address"
        }
      ],
      "payable": false,
      "stateMutability": "view",
      "type": "function"
    },
    {
      "constant": true,
      "inputs": [],
      "name": "CustomerVerification",
      "outputs": [
        {
          "internalType": "bool",
          "name": "",
          "type": "bool"
        }
      ],
      "payable": false,
      "stateMutability": "view",
      "type": "function"
    },
    {
      "constant": true,
      "inputs": [],
      "name": "FinancialHealthPoints",
      "outputs": [
        {
          "internalType": "int256",
          "name": "",
          "type": "int256"
        }
      ],
      "payable": false,
      "stateMutability": "view",
      "type": "function"
    },
    {
      "constant": true,
      "inputs": [],
      "name": "HealthScore",
      "outputs": [
        {
          "internalType": "int256",
          "name": "",
          "type": "int256"
        }
      ],
      "payable": false,
      "stateMutability": "view",
      "type": "function"
    },
    {
      "constant": true,
      "inputs": [],
      "name": "HospitalName",
      "outputs": [
        {
          "internalType": "address",
          "name": "",
          "type": "address"
        }
      ],
      "payable": false,
      "stateMutability": "view",
      "type": "function"
    },
    {
      "constant": true,
      "inputs": [],
      "name": "InsuranceProvider",
      "outputs": [
        {
          "internalType": "address",
          "name": "",
          "type": "address"
        }
      ],
      "payable": false,
      "stateMutability": "view",
      "type": "function"
    },
    {
      "constant": true,
      "inputs": [],
      "name": "InsurerName",
      "outputs": [
        {
          "internalType": "address",
          "name": "",
          "type": "address"
        }
      ],
      "payable": false,
      "stateMutability": "view",
      "type": "function"
    },
    {
      "constant": true,
      "inputs": [],
      "name": "IssuanceDate",
      "outputs": [
        {
          "internalType": "int256",
          "name": "",
          "type": "int256"
        }
      ],
      "payable": false,
      "stateMutability": "view",
      "type": "function"
    },
    {
      "constant": true,
      "inputs": [],
      "name": "MaturityDate",
      "outputs": [
        {
          "internalType": "int256",
          "name": "",
          "type": "int256"
        }
      ],
      "payable": false,
      "stateMutability": "view",
      "type": "function"
    },
    {
      "constant": true,
      "inputs": [],
      "name": "MedicalUnderwriter",
      "outputs": [
        {
          "internalType": "address",
          "name": "",
          "type": "address"
        }
      ],
      "payable": false,
      "stateMutability": "view",
      "type": "function"
    },
    {
      "constant": true,
      "inputs": [],
      "name": "MedicalUnderwriting",
      "outputs": [
        {
          "internalType": "bool",
          "name": "",
          "type": "bool"
        }
      ],
      "payable": false,
      "stateMutability": "view",
      "type": "function"
    },
    {
      "constant": true,
      "inputs": [],
      "name": "PAN",
      "outputs": [
        {
          "internalType": "string",
          "name": "",
          "type": "string"
        }
      ],
      "payable": false,
      "stateMutability": "view",
      "type": "function"
    },
    {
      "constant": true,
      "inputs": [],
      "name": "PaymentTerm",
      "outputs": [
        {
          "internalType": "int256",
          "name": "",
          "type": "int256"
        }
      ],
      "payable": false,
      "stateMutability": "view",
      "type": "function"
    },
    {
      "constant": true,
      "inputs": [],
      "name": "PhysicalVerification",
      "outputs": [
        {
          "internalType": "bool",
          "name": "",
          "type": "bool"
        }
      ],
      "payable": false,
      "stateMutability": "view",
      "type": "function"
    },
    {
      "constant": true,
      "inputs": [],
      "name": "PolicyIssued",
      "outputs": [
        {
          "internalType": "bool",
          "name": "",
          "type": "bool"
        }
      ],
      "payable": false,
      "stateMutability": "view",
      "type": "function"
    },
    {
      "constant": true,
      "inputs": [],
      "name": "PolicyName",
      "outputs": [
        {
          "internalType": "string",
          "name": "",
          "type": "string"
        }
      ],
      "payable": false,
      "stateMutability": "view",
      "type": "function"
    },
    {
      "constant": true,
      "inputs": [],
      "name": "PolicyNumber",
      "outputs": [
        {
          "internalType": "int256",
          "name": "",
          "type": "int256"
        }
      ],
      "payable": false,
      "stateMutability": "view",
      "type": "function"
    },
    {
      "constant": true,
      "inputs": [],
      "name": "PolicyTerm",
      "outputs": [
        {
          "internalType": "int256",
          "name": "",
          "type": "int256"
        }
      ],
      "payable": false,
      "stateMutability": "view",
      "type": "function"
    },
    {
      "constant": true,
      "inputs": [],
      "name": "PremiumFinal",
      "outputs": [
        {
          "internalType": "int256",
          "name": "",
          "type": "int256"
        }
      ],
      "payable": false,
      "stateMutability": "view",
      "type": "function"
    },
    {
      "constant": true,
      "inputs": [],
      "name": "PremiumPayment",
      "outputs": [
        {
          "internalType": "bool",
          "name": "",
          "type": "bool"
        }
      ],
      "payable": false,
      "stateMutability": "view",
      "type": "function"
    },
    {
      "constant": true,
      "inputs": [],
      "name": "PremiumRecieved",
      "outputs": [
        {
          "internalType": "bool",
          "name": "",
          "type": "bool"
        }
      ],
      "payable": false,
      "stateMutability": "view",
      "type": "function"
    },
    {
      "constant": true,
      "inputs": [],
      "name": "Sex",
      "outputs": [
        {
          "internalType": "string",
          "name": "",
          "type": "string"
        }
      ],
      "payable": false,
      "stateMutability": "view",
      "type": "function"
    },
    {
      "constant": true,
      "inputs": [],
      "name": "State",
      "outputs": [
        {
          "internalType": "enum SecureInsuranceContract.StateType",
          "name": "",
          "type": "uint8"
        }
      ],
      "payable": false,
      "stateMutability": "view",
      "type": "function"
    },
    {
      "constant": true,
      "inputs": [],
      "name": "SumAssured",
      "outputs": [
        {
          "internalType": "int256",
          "name": "",
          "type": "int256"
        }
      ],
      "payable": false,
      "stateMutability": "view",
      "type": "function"
    },
    {
      "constant": true,
      "inputs": [],
      "name": "SumAssuredFinal",
      "outputs": [
        {
          "internalType": "int256",
          "name": "",
          "type": "int256"
        }
      ],
      "payable": false,
      "stateMutability": "view",
      "type": "function"
    },
    {
      "constant": false,
      "inputs": [],
      "name": "ConfirmDetails",
      "outputs": [],
      "payable": false,
      "stateMutability": "nonpayable",
      "type": "function"
    },
    {
      "constant": false,
      "inputs": [],
      "name": "SendToBankUnderwriter",
      "outputs": [],
      "payable": false,
      "stateMutability": "nonpayable",
      "type": "function"
    },
    {
      "constant": false,
      "inputs": [
        {
          "internalType": "bool",
          "name": "customerVerification",
          "type": "bool"
        },
        {
          "internalType": "bool",
          "name": "active",
          "type": "bool"
        },
        {
          "internalType": "int256",
          "name": "financialHealthPoints",
          "type": "int256"
        },
        {
          "internalType": "bool",
          "name": "bankUnderwritingResult",
          "type": "bool"
        }
      ],
      "name": "UpdateFinancialHealth",
      "outputs": [],
      "payable": false,
      "stateMutability": "nonpayable",
      "type": "function"
    },
    {
      "constant": false,
      "inputs": [],
      "name": "SendToMedicalUnderwriter",
      "outputs": [],
      "payable": false,
      "stateMutability": "nonpayable",
      "type": "function"
    },
    {
      "constant": false,
      "inputs": [
        {
          "internalType": "bool",
          "name": "activeStatus",
          "type": "bool"
        },
        {
          "internalType": "int256",
          "name": "healthScore",
          "type": "int256"
        },
        {
          "internalType": "bool",
          "name": "physicalVerification",
          "type": "bool"
        },
        {
          "internalType": "bool",
          "name": "medicalUnderwriting",
          "type": "bool"
        }
      ],
      "name": "UpdateMedicalHealth",
      "outputs": [],
      "payable": false,
      "stateMutability": "nonpayable",
      "type": "function"
    },
    {
      "constant": false,
      "inputs": [
        {
          "internalType": "bool",
          "name": "premiumRecieved",
          "type": "bool"
        },
        {
          "internalType": "int256",
          "name": "policyNumber",
          "type": "int256"
        },
        {
          "internalType": "int256",
          "name": "issuanceDate",
          "type": "int256"
        },
        {
          "internalType": "int256",
          "name": "maturityDate",
          "type": "int256"
        },
        {
          "internalType": "int256",
          "name": "premiumFinal",
          "type": "int256"
        },
        {
          "internalType": "int256",
          "name": "sumAssuredFinal",
          "type": "int256"
        },
        {
          "internalType": "bool",
          "name": "policyIssued",
          "type": "bool"
        }
      ],
      "name": "RecalculatePolicy",
      "outputs": [],
      "payable": false,
      "stateMutability": "nonpayable",
      "type": "function"
    },
    {
      "constant": false,
      "inputs": [],
      "name": "ConfirmPolicy",
      "outputs": [],
      "payable": false,
      "stateMutability": "nonpayable",
      "type": "function"
    },
    {
      "constant": false,
      "inputs": [],
      "name": "Reject",
      "outputs": [],
      "payable": false,
      "stateMutability": "nonpayable",
      "type": "function"
    },
    {
      "constant": false,
      "inputs": [
        {
          "internalType": "string",
          "name": "claimReason",
          "type": "string"
        },
        {
          "internalType": "address",
          "name": "claimResponder",
          "type": "address"
        }
      ],
      "name": "InvokeClaim",
      "outputs": [],
      "payable": false,
      "stateMutability": "nonpayable",
      "type": "function"
    },
    {
      "constant": false,
      "inputs": [
        {
          "internalType": "bool",
          "name": "claimReasonVerification",
          "type": "bool"
        },
        {
          "internalType": "string",
          "name": "claimReasonRemark",
          "type": "string"
        }
      ],
      "name": "SubmitClaimDetails",
      "outputs": [],
      "payable": false,
      "stateMutability": "nonpayable",
      "type": "function"
    },
    {
      "constant": false,
      "inputs": [],
      "name": "ClaimRequestAccepted",
      "outputs": [],
      "payable": false,
      "stateMutability": "nonpayable",
      "type": "function"
    },
    {
      "constant": false,
      "inputs": [],
      "name": "ClaimRequestRejected",
      "outputs": [],
      "payable": false,
      "stateMutability": "nonpayable",
      "type": "function"
    }
  ],
  "bytecode": "0x60806040523480156200001157600080fd5b5060405162001dec38038062001dec83398181016040526101808110156200003857600080fd5b8101908080519060200190929190805160405193929190846401000000008211156200006357600080fd5b838201915060208201858111156200007a57600080fd5b82518660018202830111640100000000821117156200009857600080fd5b8083526020830192505050908051906020019080838360005b83811015620000ce578082015181840152602081019050620000b1565b50505050905090810190601f168015620000fc5780820380516001836020036101000a031916815260200191505b50604052602001805190602001909291908051906020019092919080519060200190929190805160405193929190846401000000008211156200013e57600080fd5b838201915060208201858111156200015557600080fd5b82518660018202830111640100000000821117156200017357600080fd5b8083526020830192505050908051906020019080838360005b83811015620001a95780820151818401526020810190506200018c565b50505050905090810190601f168015620001d75780820380516001836020036101000a031916815260200191505b5060405260200180519060200190929190805160405193929190846401000000008211156200020557600080fd5b838201915060208201858111156200021c57600080fd5b82518660018202830111640100000000821117156200023a57600080fd5b8083526020830192505050908051906020019080838360005b838110156200027057808201518184015260208101905062000253565b50505050905090810190601f1680156200029e5780820380516001836020036101000a031916815260200191505b506040526020018051906020019092919080519060200190929190805190602001909291908051906020019092919050505033600060016101000a81548173ffffffffffffffffffffffffffffffffffffffff021916908373ffffffffffffffffffffffffffffffffffffffff1602179055508b6004819055508a600590805190602001906200033092919062000492565b5089600660006101000a81548173ffffffffffffffffffffffffffffffffffffffff021916908373ffffffffffffffffffffffffffffffffffffffff1602179055508860078190555087600860006101000a81548173ffffffffffffffffffffffffffffffffffffffff021916908373ffffffffffffffffffffffffffffffffffffffff1602179055508660099080519060200190620003d292919062000492565b5085600a60006101000a81548173ffffffffffffffffffffffffffffffffffffffff021916908373ffffffffffffffffffffffffffffffffffffffff16021790555084600b90805190602001906200042c92919062000492565b5083600c8190555082600d8190555081600e8190555080600f60006101000a81548160ff02191690831515021790555060008060006101000a81548160ff0219169083600c8111156200047b57fe5b021790555050505050505050505050505062000541565b828054600181600116156101000203166002900490600052602060002090601f016020900481019282601f10620004d557805160ff191683800117855562000506565b8280016001018555821562000506579182015b8281111562000505578251825591602001919060010190620004e8565b5b50905062000515919062000519565b5090565b6200053e91905b808211156200053a57600081600090555060010162000520565b5090565b90565b61189b80620005516000396000f3fe608060405234801561001057600080fd5b50600436106102a05760003560e01c806395a3ca5911610167578063c9b0a2a7116100ce578063d70f5cb111610087578063d70f5cb114610bdb578063dc7a790214610c2d578063e75360af14610cb0578063ea8c1bd514610cce578063f1b6dccd14610d18578063f95d2f5714610d44576102a0565b8063c9b0a2a714610b33578063cae18a7214610b55578063cba5982714610b5f578063cdc2489014610b69578063d3e3a0ef14610bb3578063d56798a414610bd1576102a0565b8063a9e6488c11610120578063a9e6488c146109bd578063aa928751146109df578063ab40fc8a14610a01578063b867002d14610a0b578063baf0b74314610a2d578063bf68645314610ab0576102a0565b806395a3ca591461084457806397604e391461084e5780639913976e146109155780639d94f4c814610937578063a1c12e6b14610955578063a6b703fe1461099f576102a0565b80636dd8298e1161020b57806381715fc9116101c457806381715fc9146106cb578063879c1d1b146106e95780638a69a96e146107075780638b2747611461078a5780638fe6c2dd146107dc578063924a6917146107fa576102a0565b80636dd8298e146104c25780637417472b1461059d578063763ea2f3146105a757806377ae8d85146106155780637f196f5414610637578063806dd46414610681576102a0565b80632633f3941161025d5780632633f3941461038d578063314bba3f146103ab5780633f51e53f146103c957806348e7c954146104135780634afb7e791461041d5780636b4dc258146104a0576102a0565b8063026572ce146102a557806303a9e943146102c35780630c5c209d146102e55780631b9c1524146103035780631d0f9117146103215780631ec57f6c14610343575b600080fd5b6102ad610d66565b6040518082815260200191505060405180910390f35b6102cb610d6c565b604051808215151515815260200191505060405180910390f35b6102ed610d7f565b6040518082815260200191505060405180910390f35b61030b610d85565b6040518082815260200191505060405180910390f35b610329610d8b565b604051808215151515815260200191505060405180910390f35b61034b610d9e565b604051808273ffffffffffffffffffffffffffffffffffffffff1673ffffffffffffffffffffffffffffffffffffffff16815260200191505060405180910390f35b610395610dc4565b6040518082815260200191505060405180910390f35b6103b3610dca565b6040518082815260200191505060405180910390f35b6103d1610dd0565b604051808273ffffffffffffffffffffffffffffffffffffffff1673ffffffffffffffffffffffffffffffffffffffff16815260200191505060405180910390f35b61041b610df6565b005b610425610e1b565b6040518080602001828103825283818151815260200191508051906020019080838360005b8381101561046557808201518184015260208101905061044a565b50505050905090810190601f1680156104925780820380516001836020036101000a031916815260200191505b509250505060405180910390f35b6104a8610eb9565b604051808215151515815260200191505060405180910390f35b61059b600480360360408110156104d857600080fd5b81019080803590602001906401000000008111156104f557600080fd5b82018360208201111561050757600080fd5b8035906020019184600183028401116401000000008311171561052957600080fd5b91908080601f016020809104026020016040519081016040528093929190818152602001838380828437600081840152601f19601f820116905080830192505050505050509192919290803573ffffffffffffffffffffffffffffffffffffffff169060200190929190505050610ecc565b005b6105a5610f4b565b005b610613600480360360e08110156105bd57600080fd5b810190808035151590602001909291908035906020019092919080359060200190929190803590602001909291908035906020019092919080359060200190929190803515159060200190929190505050610fb1565b005b61061d611034565b604051808215151515815260200191505060405180910390f35b61063f611047565b604051808273ffffffffffffffffffffffffffffffffffffffff1673ffffffffffffffffffffffffffffffffffffffff16815260200191505060405180910390f35b61068961106d565b604051808273ffffffffffffffffffffffffffffffffffffffff1673ffffffffffffffffffffffffffffffffffffffff16815260200191505060405180910390f35b6106d3611093565b6040518082815260200191505060405180910390f35b6106f1611099565b6040518082815260200191505060405180910390f35b61070f61109f565b6040518080602001828103825283818151815260200191508051906020019080838360005b8381101561074f578082015181840152602081019050610734565b50505050905090810190601f16801561077c5780820380516001836020036101000a031916815260200191505b509250505060405180910390f35b6107da600480360360808110156107a057600080fd5b810190808035151590602001909291908035151590602001909291908035906020019092919080351515906020019092919050505061113d565b005b6107e46111fc565b6040518082815260200191505060405180910390f35b610802611202565b604051808273ffffffffffffffffffffffffffffffffffffffff1673ffffffffffffffffffffffffffffffffffffffff16815260200191505060405180910390f35b61084c611228565b005b6109136004803603604081101561086457600080fd5b810190808035151590602001909291908035906020019064010000000081111561088d57600080fd5b82018360208201111561089f57600080fd5b803590602001918460018302840111640100000000831117156108c157600080fd5b91908080601f016020809104026020016040519081016040528093929190818152602001838380828437600081840152601f19601f82011690508083019250505050505050919291929050505061124d565b005b61091d6112a5565b604051808215151515815260200191505060405180910390f35b61093f6112b8565b6040518082815260200191505060405180910390f35b61095d6112be565b604051808273ffffffffffffffffffffffffffffffffffffffff1673ffffffffffffffffffffffffffffffffffffffff16815260200191505060405180910390f35b6109a76112e4565b6040518082815260200191505060405180910390f35b6109c56112ea565b604051808215151515815260200191505060405180910390f35b6109e76112fd565b604051808215151515815260200191505060405180910390f35b610a09611310565b005b610a13611376565b604051808215151515815260200191505060405180910390f35b610a35611389565b6040518080602001828103825283818151815260200191508051906020019080838360005b83811015610a75578082015181840152602081019050610a5a565b50505050905090810190601f168015610aa25780820380516001836020036101000a031916815260200191505b509250505060405180910390f35b610ab8611427565b6040518080602001828103825283818151815260200191508051906020019080838360005b83811015610af8578082015181840152602081019050610add565b50505050905090810190601f168015610b255780820380516001836020036101000a031916815260200191505b509250505060405180910390f35b610b3b6114c5565b604051808215151515815260200191505060405180910390f35b610b5d6114d8565b005b610b6761153e565b005b610b71611581565b604051808273ffffffffffffffffffffffffffffffffffffffff1673ffffffffffffffffffffffffffffffffffffffff16815260200191505060405180910390f35b610bbb6115a7565b6040518082815260200191505060405180910390f35b610bd96115ad565b005b610c2b60048036036080811015610bf157600080fd5b8101908080351515906020019092919080359060200190929190803515159060200190929190803515159060200190929190505050611613565b005b610c356116d2565b6040518080602001828103825283818151815260200191508051906020019080838360005b83811015610c75578082015181840152602081019050610c5a565b50505050905090810190601f168015610ca25780820380516001836020036101000a031916815260200191505b509250505060405180910390f35b610cb8611770565b6040518082815260200191505060405180910390f35b610cd6611776565b604051808273ffffffffffffffffffffffffffffffffffffffff1673ffffffffffffffffffffffffffffffffffffffff16815260200191505060405180910390f35b610d2061179c565b6040518082600c811115610d3057fe5b60ff16815260200191505060405180910390f35b610d4c6117ae565b604051808215151515815260200191505060405180910390f35b60145481565b601160009054906101000a900460ff1681565b600c5481565b60125481565b601360019054906101000a900460ff1681565b600260009054906101000a900473ffffffffffffffffffffffffffffffffffffffff1681565b60185481565b60075481565b601d60009054906101000a900473ffffffffffffffffffffffffffffffffffffffff1681565b600c6000806101000a81548160ff0219169083600c811115610e1457fe5b0217905550565b60098054600181600116156101000203166002900480601f016020809104026020016040519081016040528092919081815260200182805460018160011615610100020316600290048015610eb15780601f10610e8657610100808354040283529160200191610eb1565b820191906000526020600020905b815481529060010190602001808311610e9457829003601f168201915b505050505081565b601b60009054906101000a900460ff1681565b81601a9080519060200190610ee29291906117c1565b5080601d60006101000a81548173ffffffffffffffffffffffffffffffffffffffff021916908373ffffffffffffffffffffffffffffffffffffffff16021790555060096000806101000a81548160ff0219169083600c811115610f4257fe5b02179055505050565b33600360006101000a81548173ffffffffffffffffffffffffffffffffffffffff021916908373ffffffffffffffffffffffffffffffffffffffff16021790555060046000806101000a81548160ff0219169083600c811115610faa57fe5b0217905550565b86601360026101000a81548160ff021916908315150217905550856014819055508460158190555083601681905550826017819055508160188190555080601960006101000a81548160ff02191690831515021790555060066000806101000a81548160ff0219169083600c81111561102657fe5b021790555050505050505050565b601960009054906101000a900460ff1681565b600160009054906101000a900473ffffffffffffffffffffffffffffffffffffffff1681565b600660009054906101000a900473ffffffffffffffffffffffffffffffffffffffff1681565b60105481565b60155481565b601c8054600181600116156101000203166002900480601f0160208091040260200160405190810160405280929190818152602001828054600181600116156101000203166002900480156111355780601f1061110a57610100808354040283529160200191611135565b820191906000526020600020905b81548152906001019060200180831161111857829003601f168201915b505050505081565b33600160006101000a81548173ffffffffffffffffffffffffffffffffffffffff021916908373ffffffffffffffffffffffffffffffffffffffff16021790555083600f60016101000a81548160ff02191690831515021790555082600f60026101000a81548160ff0219169083151502179055508160108190555080601160006101000a81548160ff02191690831515021790555060036000806101000a81548160ff0219169083600c8111156111f157fe5b021790555050505050565b600e5481565b600360009054906101000a900473ffffffffffffffffffffffffffffffffffffffff1681565b600b6000806101000a81548160ff0219169083600c81111561124657fe5b0217905550565b81601b60006101000a81548160ff02191690831515021790555080601c908051906020019061127d9291906117c1565b50600a6000806101000a81548160ff0219169083600c81111561129c57fe5b02179055505050565b600f60019054906101000a900460ff1681565b60045481565b600060019054906101000a900473ffffffffffffffffffffffffffffffffffffffff1681565b60175481565b601360009054906101000a900460ff1681565b600f60009054906101000a900460ff1681565b33600060016101000a81548173ffffffffffffffffffffffffffffffffffffffff021916908373ffffffffffffffffffffffffffffffffffffffff16021790555060016000806101000a81548160ff0219169083600c81111561136f57fe5b0217905550565b601360029054906101000a900460ff1681565b60058054600181600116156101000203166002900480601f01602080910402602001604051908101604052809291908181526020018280546001816001161561010002031660029004801561141f5780601f106113f45761010080835404028352916020019161141f565b820191906000526020600020905b81548152906001019060200180831161140257829003601f168201915b505050505081565b600b8054600181600116156101000203166002900480601f0160208091040260200160405190810160405280929190818152602001828054600181600116156101000203166002900480156114bd5780601f10611492576101008083540402835291602001916114bd565b820191906000526020600020905b8154815290600101906020018083116114a057829003601f168201915b505050505081565b600f60029054906101000a900460ff1681565b33600060016101000a81548173ffffffffffffffffffffffffffffffffffffffff021916908373ffffffffffffffffffffffffffffffffffffffff16021790555060076000806101000a81548160ff0219169083600c81111561153757fe5b0217905550565b33600060016101000a81548173ffffffffffffffffffffffffffffffffffffffff021916908373ffffffffffffffffffffffffffffffffffffffff160217905550565b600860009054906101000a900473ffffffffffffffffffffffffffffffffffffffff1681565b60165481565b33600360006101000a81548173ffffffffffffffffffffffffffffffffffffffff021916908373ffffffffffffffffffffffffffffffffffffffff16021790555060026000806101000a81548160ff0219169083600c81111561160c57fe5b0217905550565b33600260006101000a81548173ffffffffffffffffffffffffffffffffffffffff021916908373ffffffffffffffffffffffffffffffffffffffff16021790555083601160016101000a81548160ff0219169083151502179055508260128190555081601360006101000a81548160ff02191690831515021790555080601360016101000a81548160ff02191690831515021790555060056000806101000a81548160ff0219169083600c8111156116c757fe5b021790555050505050565b601a8054600181600116156101000203166002900480601f0160208091040260200160405190810160405280929190818152602001828054600181600116156101000203166002900480156117685780601f1061173d57610100808354040283529160200191611768565b820191906000526020600020905b81548152906001019060200180831161174b57829003601f168201915b505050505081565b600d5481565b600a60009054906101000a900473ffffffffffffffffffffffffffffffffffffffff1681565b6000809054906101000a900460ff1681565b601160019054906101000a900460ff1681565b828054600181600116156101000203166002900490600052602060002090601f016020900481019282601f1061180257805160ff1916838001178555611830565b82800160010185558215611830579182015b8281111561182f578251825591602001919060010190611814565b5b50905061183d9190611841565b5090565b61186391905b8082111561185f576000816000905550600101611847565b5090565b9056fea265627a7a72315820d574f2532ad337db2c75f9bc0968b393ff269b9ce6c90bf3a149295c980d0ef964736f6c63430005100032",
  "source": "// SPDX-License-Identifier: GPL-3.0\r\n\r\npragma solidity >=0.4.0 <0.8.0;\r\n// import './BlockSecure.sol';\r\n\r\n\r\ncontract SecureInsuranceContract\r\n{\r\n    enum StateType { BuyPolicy, RequestUnderwriting,BankUnderwriting,BankUnderwritingDone,MedicalUnderwriting,MedicalUnderwritingDone,FinalPolicyIssuance,ConfirmPolicyDetails,Rejected,ClaimVerificationFromHospital,ClaimVerificationDone,ClaimAcccepted,ClaimRejected}\r\n    StateType public  State;\r\n\r\n    address public  Buyer;\r\n    address public  BankUnderwriter;\r\n    address public  MedicalUnderwriter;\r\n    address public  InsuranceProvider;\r\n\r\n    int public AadhaarCardNumber;\r\n    string public Sex;\r\n    address public BankName;\r\n    int public AccountNumber;\r\n    address public InsurerName;\r\n    string public PolicyName;\r\n    address public HospitalName;\r\n    string public PAN;\r\n    int public SumAssured;\r\n    int public PolicyTerm;\r\n\r\n    int public PaymentTerm;\r\n    bool public PremiumPayment;\r\n    bool public CustomerVerification;\r\n    bool public Active;\r\n    int public FinancialHealthPoints;\r\n    bool public BankUnderwritingResult;\r\n    bool public ActiveStatus;\r\n    int public HealthScore;\r\n    bool public PhysicalVerification;\r\n    bool public MedicalUnderwriting;\r\n    bool public PremiumRecieved;\r\n    int public PolicyNumber;\r\n    int public IssuanceDate;\r\n    int public MaturityDate;\r\n    int public PremiumFinal;\r\n    int public  SumAssuredFinal;\r\n    bool public PolicyIssued;\r\n    string public ClaimReason;\r\n    bool public ClaimReasonVerification;\r\n    string public ClaimReasonRemark;\r\n    address public ClaimResponder;\r\n\r\n    constructor(int aadhaarCardNumber,string memory sex, address bankName, int accountNumber, address insurerName,string memory policyName,address hospitalName,string memory pan, int sumAssured,int policyTerm,int paymentTerm, bool premiumPayment) public {\r\n            Buyer = msg.sender;\r\n\r\n            AadhaarCardNumber=aadhaarCardNumber;\r\n            Sex=sex;\r\n            BankName=bankName;\r\n            AccountNumber=accountNumber;\r\n            InsurerName=insurerName;\r\n            PolicyName=policyName;\r\n            HospitalName=hospitalName;\r\n            PAN=pan;\r\n            SumAssured=sumAssured;\r\n            PolicyTerm=policyTerm;\r\n            PaymentTerm=paymentTerm;\r\n            PremiumPayment=premiumPayment;\r\n\r\n            State = StateType.BuyPolicy;\r\n    }\r\n\r\n    function ConfirmDetails() public {\r\n         Buyer = msg.sender;\r\n         State = StateType.RequestUnderwriting;\r\n    }\r\n\r\n    function SendToBankUnderwriter() public {\r\n        InsuranceProvider = msg.sender;\r\n        State = StateType.BankUnderwriting;\r\n    }\r\n\r\n    function UpdateFinancialHealth(bool customerVerification,bool active,int financialHealthPoints,bool bankUnderwritingResult) public {\r\n        BankUnderwriter = msg.sender;\r\n        CustomerVerification=customerVerification;\r\n        Active=active;\r\n        FinancialHealthPoints=financialHealthPoints;\r\n        BankUnderwritingResult=bankUnderwritingResult;\r\n\r\n        State = StateType.BankUnderwritingDone;\r\n    }\r\n    function  SendToMedicalUnderwriter() public {\r\n         InsuranceProvider = msg.sender;\r\n         State = StateType.MedicalUnderwriting;\r\n    }\r\n\r\n    function  UpdateMedicalHealth(bool activeStatus,int healthScore,bool physicalVerification,bool medicalUnderwriting) public {\r\n         MedicalUnderwriter = msg.sender;\r\n         ActiveStatus=activeStatus;\r\n         HealthScore=healthScore;\r\n         PhysicalVerification=physicalVerification;\r\n         MedicalUnderwriting=medicalUnderwriting;\r\n\r\n         State = StateType.MedicalUnderwritingDone;\r\n    }\r\n\r\n    function RecalculatePolicy(bool premiumRecieved,int policyNumber,int issuanceDate,int maturityDate,int premiumFinal,int sumAssuredFinal,bool policyIssued ) public {\r\n        PremiumRecieved=premiumRecieved;\r\n        PolicyNumber=policyNumber;\r\n        IssuanceDate=issuanceDate;\r\n        MaturityDate=maturityDate;\r\n        PremiumFinal=premiumFinal;\r\n        SumAssuredFinal=sumAssuredFinal;\r\n        PolicyIssued=policyIssued;\r\n\r\n        State = StateType.FinalPolicyIssuance;\r\n    }\r\n    function ConfirmPolicy() public {\r\n        Buyer = msg.sender;\r\n        State = StateType.ConfirmPolicyDetails;\r\n    }\r\n    function Reject() public {\r\n        Buyer = msg.sender;\r\n    }\r\n\r\n    function InvokeClaim(string memory claimReason,address claimResponder) public {\r\n        ClaimReason = claimReason;\r\n        ClaimResponder=claimResponder;\r\n        State = StateType.ClaimVerificationFromHospital;\r\n    }\r\n\r\n    function SubmitClaimDetails(bool claimReasonVerification,string memory claimReasonRemark) public {\r\n        ClaimReasonVerification = claimReasonVerification;\r\n        ClaimReasonRemark=claimReasonRemark;\r\n        State = StateType.ClaimVerificationDone;\r\n    }\r\n     function ClaimRequestAccepted() public {\r\n        State = StateType.ClaimAcccepted;\r\n    }\r\n     function ClaimRequestRejected() public {\r\n        State = StateType.ClaimRejected;\r\n    }\r\n}\r\n// this contract is deployed only once\r\n// all the insurances are updated as a part of state update\r\n// an automated deployer for all insurances\r\ncontract BlockSecureDeployer {\r\n    // a list that holds all the insurances\r\n    SecureInsuranceContract[] public insurances;\r\n    uint public insuranceCounter;\r\n    constructor() public {\r\n        insuranceCounter=0;\r\n    }\r\n    function ApplyForInsurance(int aadhaarCardNumber,string memory sex, address bankName, int accountNumber, address insurerName,string memory policyName,address hospitalName,string memory pan, int sumAssured,int policyTerm,int paymentTerm, bool premiumPayment) public returns (uint) {\r\n        // create an instance of the insurance contract here\r\n        SecureInsuranceContract insurance = new SecureInsuranceContract(aadhaarCardNumber, sex, bankName, accountNumber, insurerName, policyName, hospitalName, pan, sumAssured, policyTerm, paymentTerm, premiumPayment);\r\n        // add to the list of insurances\r\n        insurances.push(insurance);\r\n        // SecureInsuranceContract currentSIC = SecureInsuranceContract(insurances[insuranceCounter]);\r\n        insuranceCounter++;\r\n        return (uint(insuranceCounter-1));\r\n    }\r\n    function FetchInsuranceByIndex(uint idx) public view returns (int aadhaarCardNumber, int accountNumber, string memory pan, uint state) {\r\n        SecureInsuranceContract SIC = SecureInsuranceContract(insurances[idx]);\r\n        return (SIC.AadhaarCardNumber(), SIC.AccountNumber(), SIC.PAN(), uint(SIC.State()));\r\n    }\r\n    function ConfirmDetails(uint idx) public returns (uint) {\r\n        // fetch the required insurance\r\n        SecureInsuranceContract SIC = SecureInsuranceContract(insurances[idx]);\r\n        SIC.ConfirmDetails();\r\n        return uint(SIC.State());\r\n    }\r\n    function SendToBankUnderwriter(uint idx) public returns (uint) {\r\n        // fetch the required insurance\r\n        SecureInsuranceContract SIC = SecureInsuranceContract(insurances[idx]);\r\n        SIC.SendToBankUnderwriter();\r\n        return uint(SIC.State());\r\n    }\r\n    function UpdateFinancialHealth(uint idx, bool customerVerification, bool active, int financialHealthPoints, bool bankUnderwritingResult) public returns (uint) {\r\n        // fetch the required insurance\r\n        SecureInsuranceContract SIC = SecureInsuranceContract(insurances[idx]);\r\n        SIC.UpdateFinancialHealth(customerVerification, active, financialHealthPoints, bankUnderwritingResult);\r\n        return uint(SIC.State());        \r\n    }\r\n    function SendToMedicalUnderwriter(uint idx) public returns (uint) {\r\n        // fetch the required insurance\r\n        SecureInsuranceContract SIC = SecureInsuranceContract(insurances[idx]);\r\n        SIC.SendToMedicalUnderwriter();\r\n        return uint(SIC.State());        \r\n    }\r\n    function UpdateMedicalHealth(uint idx, bool activeStatus, int healthScore, bool physicalVerification, bool medicalUnderwriting) public returns (uint) {\r\n        SecureInsuranceContract SIC = SecureInsuranceContract(insurances[idx]);\r\n        SIC.UpdateMedicalHealth(activeStatus, healthScore, physicalVerification, medicalUnderwriting);\r\n        return uint(SIC.State());          \r\n    } \r\n    function RecalculatePolicy(uint idx, bool premiumReceived, int policyNumber, int issuanceDate, int maturityDate, int premiumFinal, int sumAssuredFinal, bool policyIssued) public returns (uint) {\r\n        SecureInsuranceContract SIC = SecureInsuranceContract(insurances[idx]);\r\n        SIC.RecalculatePolicy(premiumReceived, policyNumber, issuanceDate, maturityDate, premiumFinal, sumAssuredFinal, policyIssued);\r\n        return uint(SIC.State());        \r\n    }\r\n    function ConfirmPolicy(uint idx) public returns (uint) {\r\n        SecureInsuranceContract SIC = SecureInsuranceContract(insurances[idx]);\r\n        SIC.ConfirmPolicy();\r\n        return uint(SIC.State());         \r\n    }\r\n    function Reject(uint idx) public returns (uint) {\r\n        SecureInsuranceContract SIC = SecureInsuranceContract(insurances[idx]);\r\n        SIC.Reject();\r\n        return uint(SIC.State());       \r\n    }\r\n    function InvokeClaim(uint idx, string memory claimReason, address claimResponder) public returns (uint) {\r\n        SecureInsuranceContract SIC = SecureInsuranceContract(insurances[idx]);\r\n        SIC.InvokeClaim(claimReason, claimResponder);\r\n        return uint(SIC.State());\r\n    }\r\n    function SubmitClaimDetails(uint idx, bool claimReasonVerification, string memory claimReasonRemark) public returns (uint) {\r\n        SecureInsuranceContract SIC = SecureInsuranceContract(insurances[idx]);\r\n        SIC.SubmitClaimDetails(claimReasonVerification, claimReasonRemark);\r\n        return uint(SIC.State());\r\n    }\r\n    function ClaimRequestAccepted(uint idx) public returns (uint) {\r\n        SecureInsuranceContract SIC = SecureInsuranceContract(insurances[idx]);\r\n        SIC.ClaimRequestAccepted();\r\n        return uint(SIC.State());\r\n    }\r\n    function ClaimRequestRejected(uint idx) public returns (uint) {\r\n        SecureInsuranceContract SIC = SecureInsuranceContract(insurances[idx]);\r\n        SIC.ClaimRequestRejected();\r\n        return uint(SIC.State());\r\n    }\r\n\r\n}\r\n",
  "sourcePath": "E:/DEV/ethereum/insurance-reformed/contracts/BlockSecureDeployer.sol",
  "compiler": {
    "name": "solc",
    "version": "0.5.16+commit.9c3226ce.Emscripten.clang"
  },
  "schemaVersion": "3.3.3",
  "updatedAt": "2021-01-31T09:33:59.108Z",
  "devdoc": {
    "methods": {}
  },
  "userdoc": {
    "methods": {}
  }
}